:020000040800F2
:1000000000300020292F00081529000817290008B2
:10001000192900081B2900081D29000800000000FC
:100020000000000000000000000000001F29000880
:1000300021290008000000002329000825290008C4
:10004000792F0008792F0008792F0008792F0008F0
:10005000792F0008792F0008792F0008792F0008E0
:10006000792F0008792F0008792F0008792F0008D0
:10007000792F0008792F0008792F0008792F0008C0
:10008000792F0008792F0008792F0008792F0008B0
:10009000792F0008792F0008792F0008792F0008A0
:1000A000792F0008792F0008792F0008792F000890
:1000B000792F0008792F000800000000792F000830
:1000C000792F00080000000000000000792F0008D0
:1000D000000000002929000835290008792F0008B0
:1000E000792F0008792F00080000000000000000B0
:1000F0000000000000000000000000000000000000
:1001000000000000000000000000000000000000EF
:100110000000000000000000792F0008792F00087F
:1001200000000000000000000000000000000000CF
:1001300000000000000000000000000000000000BF
:10014000792F0008792F000800000000000000004F
:10015000000000000000000000000000000000009F
:10016000000000000000000000000000000000008F
:10017000000000000000000000000000000000007F
:0801800000000000792F0008C7
:1001880010B5054C237833B9044B13B10448AFF3C9
:1001980000800123237010BDE00100200000000052
:1001A8004852000808B5034B1BB103490348AFF395
:1001B800008008BD00000000E4010020485200084B
:1001C800034613F8012B002AFBD1181A013870478F
:1001D80081F0004102E000BF83F0004330B54FEAF0
:1001E80041044FEA430594EA050F08BF90EA020F5D
:1001F8001FBF54EA000C55EA020C7FEA645C7FEAF0
:10020800655C00F0E2804FEA5454D4EB5555B8BF12
:100218006D420CDD2C4480EA020281EA030382EA83
:10022800000083EA010180EA020281EA0303362D15
:1002380088BF30BD11F0004F4FEA01314FF4801CE8
:100248004CEA113102D0404261EB410113F0004FFA
:100258004FEA03334CEA133302D0524263EB4303B1
:1002680094EA050F00F0A780A4F10104D5F1200E4F
:100278000DDB02FA0EFC22FA05F2801841F10001AA
:1002880003FA0EF2801843FA05F359410EE0A5F17E
:1002980020050EF1200E012A03FA0EFC28BF4CF0AF
:1002A800020C43FA05F3C01851EBE37101F0004565
:1002B80007D54FF0000EDCF1000C7EEB00006EEB72
:1002C8000101B1F5801F1BD3B1F5001F0CD34908FC
:1002D8005FEA30004FEA3C0C04F101044FEA445253
:1002E80012F5800F80F09A80BCF1004F08BF5FEADA
:1002F800500C50F1000041EB045141EA050130BDBA
:100308005FEA4C0C404141EB010111F4801FA4F15C
:100318000104E9D191F0000F04BF01460020B1FAB1
:1003280081F308BF2033A3F10B03B3F120020CDAE9
:100338000C3208DD02F1140CC2F10C0201FA0CF0C7
:1003480021FA02F10CE002F11402D8BFC2F1200C2C
:1003580001FA02F120FA0CFCDCBF41EA0C019040E2
:10036800E41AA2BF01EB0451294330BD6FEA04042B
:100378001F3C1CDA0C340EDC04F11404C4F1200216
:1003880020FA04F001FA02F340EA030021FA04F328
:1003980045EA030130BDC4F10C04C4F1200220FA7F
:1003A80002F001FA04F340EA0300294630BD21FABD
:1003B80004F0294630BD94F0000F83F4801306BF83
:1003C80081F480110134013D4EE77FEA645C18BF77
:1003D8007FEA655C29D094EA050F08BF90EA020F0E
:1003E80005D054EA000C04BF1946104630BD91EA06
:1003F800030F1EBF0021002030BD5FEA545C05D109
:100408004000494128BF41F0004130BD14F5800447
:100418003CBF01F5801130BD01F0004545F0FE41BB
:1004280041F470014FF0000030BD7FEA645C1ABFF0
:10043800194610467FEA655C1CBF0B46024650EA27
:10044800013406BF52EA033591EA030F41F4002153
:1004580030BD00BF90F0000F04BF0021704730B5D9
:100468004FF4806404F132044FF000054FF00001AE
:1004780050E700BF90F0000F04BF0021704730B56F
:100488004FF4806404F1320410F0004548BF404244
:100498004FF000013EE700BF42004FEAE2014FEA99
:1004A80031014FEA02701FBF12F07F4393F07F4F74
:1004B80081F06051704792F0000F14BF93F07F4FA6
:1004C800704730B54FF4607401F0004521F00041E9
:1004D80020E700BF50EA010208BF704730B54FF06F
:1004E80000050AE050EA010208BF704730B511F074
:1004F800004502D5404261EB41014FF4806404F1AC
:1005080032045FEA915C3FF4DCAE4FF003025FEA2D
:10051800DC0C18BF03325FEADC0C18BF033202EBB5
:10052800DC02C2F1200300FA03FC20FA02F001FA0F
:1005380003FE40EA0E0021FA02F11444C1E600BFAE
:1005480070B54FF0FF0C4CF4E06C1CEA11541DBF61
:100558001CEA135594EA0C0F95EA0C0F00F0DEF82C
:100568002C4481EA030621EA4C5123EA4C5350EA11
:10057800013518BF52EA033541F4801143F4801362
:1005880038D0A0FB02CE4FF00005E1FB02E506F0F3
:100598000042E0FB03E54FF00006E1FB03569CF048
:1005A800000F18BF4EF0010EA4F1FF04B6F5007F4E
:1005B80064F5407404D25FEA4E0E6D4146EB0606C0
:1005C80042EAC62141EA55514FEAC52040EA5E5049
:1005D8004FEACE2EB4F1FD0C88BFBCF5E06F1ED8F3
:1005E800BEF1004F08BF5FEA500E50F1000041EB2A
:1005F800045170BD06F0004646EA010140EA0200D7
:1006080081EA0301B4EB5C04C2BFD4EB0C0541EAF8
:10061800045170BD41F480114FF0000E013C00F30D
:10062800AB8014F1360FDEBF002001F0004170BD31
:10063800C4F10004203C35DA0C341BDC04F114044A
:10064800C4F1200500FA05F320FA04F001FA05F2D6
:1006580040EA020001F0004221F0004110EBD370A3
:1006680021FA04F642EB06015EEA430E08BF20EACF
:10067800D37070BDC4F10C04C4F1200500FA04F372
:1006880020FA05F001FA04F240EA020001F0004104
:1006980010EBD37041F100015EEA430E08BF20EA77
:1006A800D37070BDC4F1200500FA05F24EEA020EBF
:1006B80020FA04F301FA05F243EA020321FA04F0EE
:1006C80001F0004121FA04F220EA020000EBD370A5
:1006D8005EEA430E08BF20EAD37070BD94F0000FA5
:1006E8000FD101F00046400041EB010111F4801FD9
:1006F80008BF013CF7D041EA060195F0000F18BF8A
:10070800704703F00046520043EB030313F4801FC5
:1007180008BF013DF7D043EA0603704794EA0C0F7F
:100728000CEA135518BF95EA0C0F0CD050EA410695
:1007380018BF52EA4306D1D181EA030101F0004112
:100748004FF0000070BD50EA410606BF104619463A
:1007580052EA430619D094EA0C0F02D150EA013646
:1007680013D195EA0C0F05D152EA03361CBF104687
:1007780019460AD181EA030101F0004141F0FE4126
:1007880041F470014FF0000070BD41F0FE4141F4AA
:10079800780170BD70B54FF0FF0C4CF4E06C1CEAAA
:1007A80011541DBF1CEA135594EA0C0F95EA0C0F5F
:1007B80000F0A7F8A4EB050481EA030E52EA03351A
:1007C8004FEA013100F088804FEA03334FF080553B
:1007D80045EA131343EA12634FEA022245EA111568
:1007E80045EA10654FEA00260EF000419D4208BF19
:1007F800964244F1FD0404F5407402D25B084FEAC6
:100808003202B61A65EB03055B084FEA32024FF471
:1008180080104FF4002CB6EB020E75EB030E22BFCE
:10082800B61A754640EA0C005B084FEA3202B6EB8E
:10083800020E75EB030E22BFB61A754640EA5C003D
:100848005B084FEA3202B6EB020E75EB030E22BFCD
:10085800B61A754640EA9C005B084FEA3202B6EBCE
:10086800020E75EB030E22BFB61A754640EADC008D
:1008780055EA060E18D04FEA051545EA16754FEAEF
:1008880006164FEAC30343EA52734FEAC2025FEA0D
:100898001C1CC0D111F4801F0BD141EA00014FF09C
:1008A80000004FF0004CB6E711F4801F04BF01436D
:1008B8000020B4F1FD0C88BFBCF5E06F3FF6AFAE89
:1008C800B5EB030C04BFB6EB020C5FEA500C50F119
:1008D800000041EB045170BD0EF0004E4EEA11319C
:1008E80014EB5C04C2BFD4EB0C0541EA045170BDA3
:1008F80041F480114FF0000E013C90E645EA060EE7
:100908008DE60CEA135594EA0C0F08BF95EA0C0F14
:100918003FF43BAF94EA0C0F0AD150EA01347FF45C
:1009280034AF95EA0C0F7FF425AF104619462CE733
:1009380095EA0C0F06D152EA03353FF4FDAE104696
:10094800194622E750EA410618BF52EA43067FF4E7
:10095800C5AE50EA41047FF40DAF52EA43057FF477
:10096800EBAE12E74FF0FF3C06E000BF4FF0010C82
:1009780002E000BF4FF0010C4DF804CD4FEA410CE6
:100988007FEA6C5C4FEA430C18BF7FEA6C5C1BD0B3
:1009980001B050EA410C0CBF52EA430C91EA030F34
:1009A80002BF90EA020F0020704710F1000F91EA91
:1009B800030F58BF994208BF90422CBFD8176FEA5F
:1009C800E37040F0010070474FEA410C7FEA6C5C2D
:1009D80002D150EA013C07D14FEA430C7FEA6C5C34
:1009E800D6D152EA033CD3D05DF8040B704700BF60
:1009F8008446104662468C461946634600E000BFAE
:100A080001B5FFF7B7FF002848BF10F1000F01BD7F
:100A18004DF808EDFFF7F4FF0CBF012000205DF84A
:100A280008FB00BF4DF808EDFFF7EAFF34BF0120CF
:100A380000205DF808FB00BF4DF808EDFFF7E0FF68
:100A480094BF012000205DF808FB00BF4DF808EDB9
:100A5800FFF7CEFF94BF012000205DF808FB00BF20
:100A68004DF808EDFFF7C4FF34BF012000205DF802
:100A780008FB00BF4FEA410C7FEA6C5C02D150EAE8
:100A8800013C0AD14FEA430C7FEA6C5C02D152EA7E
:100A9800033C02D14FF0000070474FF0010070474F
:100AA8004FEA410212F5001215D211D56FF478738E
:100AB800B3EB625212D94FEAC12343F0004343EA31
:100AC800505311F0004F23FA02F018BF404270470C
:100AD8004FF00000704750EA013005D111F0004096
:100AE80008BF6FF0004070474FF00000704700BF2C
:100AF80038B50E4A0E4B054618784FF47A73B3FB97
:100B0800F0F31068B0FBF3F000F0A0F8044658B911
:100B18000F2D09D8024629464FF0FF3000F056F84D
:100B2800044B20461D6038BD012038BD0C00002054
:100B38000000002004000020074A08B5136843F0AD
:100B480010031360032000F02FF80020FFF7D0FFF8
:100B580001F0C4FE002008BD00200240034A044BF7
:100B680011681B780B441360704700BF1C020020FB
:100B780000000020014B1868704700BF1C020020CD
:100B880038B50446FFF7F6FF631C1CBF054B1B78FE
:100B9800054618BFE418FFF7EDFF401B8442FAD85A
:100BA80038BD00BF00000020074AD36823F4E06383
:100BB8001B041B0C43F0BF63000243F4003300F432
:100BC800E0600343D360704700ED00E0174B30B599
:100BD800DC68C4F30224C4F10703251D042B28BFD5
:100BE8000423062D4FF0010505FA03F303F1FF3343
:100BF8008CBF033C00241940A14005FA04F4013CD1
:100C08002240002842EA01024FEA0212AFBF00F177
:100C1800604000F00F00064BD2B2A5BF00F561405E
:100C2800D2B21A5480F8002330BD00BF00ED00E0B6
:100C380014ED00E04209012300F01F0003FA00F060
:100C4800014B43F82200704700E100E00138B0F1A1
:100C5800807F0AD2064B074A5860F02182F8231099
:100C68000020072298601A6070470120704700BF73
:100C780010E000E000ED00E090F82120022A10B515
:100C880003D004228263012010BD0268C46B11687E
:100C9800436B21F00E011160116821F00101116010
:100CA800026C012101FA02F26260002480F821102E
:100CB80080F8204013B19847204610BD184610BD53
:100CC8002DE9F04F85B00B68DFF86481564A01932F
:100CD8004FF00F090023019CDC4002D105B0BDE8AC
:100CE800F08F012404FA03FA019C14EA0A0500F0C3
:100CF80093804C6824F0100BBBF1020F11D1DF0870
:100D080000EB870703F0070E3E6A4FEA8E0E09FADA
:100D18000EFC26EA0C0C0E6906FA0EF646EA0C06DC
:100D28003E624FEA430C0327066807FA0CF7FF43B5
:100D380004F0030E3E400EFA0CFE0BF1FF3B4EEAA8
:100D48000606BBF1010F066011D8866806EA070B94
:100D5800CE6806FA0CFE4EEA0B068660466826EA5E
:100D68000A0AC4F300169E4046EA0A064660C668A8
:100D780037408E6806FA0CF63743E600C7604BD555
:100D8800D8F8186046F00106C8F81860D8F8186056
:100D980023F0030707F1804706F0010607F58037BF
:100DA800039603F0030E039EBE684FEA8E0E09FAFF
:100DB8000EFCB0F1904F26EA0C0C2FD01B4EB0421F
:100DC8002ED006F58066B0422CD006F58066B0427B
:100DD80014BF0526032606FA0EF646EA0C06BE6080
:100DE8001668EF4314F4803F0CBF3E402E43166054
:100DF800566814F4003F0CBF3E402E435660966878
:100E080014F4801F0CBF3E402E439660D668A4029F
:100E180054BF3E402E43D66001335CE70026DAE734
:100E28000126D8E70226D6E700040140000400485E
:100E3800001002400AB181617047816270474369BE
:100E480059404161704700002DE9F347054618B93C
:100E5800012002B0BDE8F0870368DA0711D42B68D7
:100E68009B0700F185802B681C0700F1F6802B6832
:100E7800580700F13F81EA69002A40F0D681002036
:100E8800E7E7BA4C636803F00C03042B07D06368E8
:100E980003F00C03082B16D16368DF0313D54FF456
:100EA800003393FAA3F2216893FAA3F3B3FA83F316
:100EB80003F01F03012202FA03F30B42CFD06B6841
:100EC800002BCCD1C4E76A68B2F5803F25D12368EE
:100ED80043F480332360E36AA96823F00F030B43CC
:100EE800E36252B3FFF746FE4FF40036804601270F
:100EF80096FAA6F3226896FAA6F3B3FA83F303F0F8
:100F08001F0307FA03F31342A9D1FFF733FEA0EB3F
:100F180008006428ECD903209BE7236832B923F43E
:100F280080332360236823F48023D3E7B2F5A02F0E
:100F3800F5D143F480232360C9E7FFF71BFE4FF484
:100F480000368046012796FAA6F3226896FAA6F399
:100F5800B3FA83F303F01F0307FA03F313423FF4D2
:100F68007EAFFFF707FEA0EB08006428EBD9D2E7B5
:100F78007E4C636813F00C0F07D0636803F00C0312
:100F8800082B22D16368DE031FD4022393FAA3F24D
:100F9800216893FAA3F3B3FA83F303F01F03012242
:100FA80002FA03F30B4203D02B6993427FF450AF4C
:100FB8002168F82393FAA3F3B3FA83F26B69934099
:100FC80021F0F802134323604DE72A6901260AB38A
:100FD80096FAA6F3B3FA83F303F1845303F5841363
:100FE8009B0002271E60FFF7C5FD804697FAA7F30E
:100FF800226897FAA7F3B3FA83F303F01F0306FAFC
:1010080003F31342D4D1FFF7B5FDA0EB0800022883
:10101800ECD980E796FAA6F3B3FA83F303F1845385
:1010280003F584139B0002271A60FFF7A3FD80468F
:1010380097FAA7F3226897FAA7F3B3FA83F303F0B2
:101048001F0306FA03F313423FF40DAFFFF792FDB7
:10105800A0EB08000228EBD95DE7AA69434E444992
:1010680001241AB394FAA4F3B3FA83F30B449B0054
:1010780002271C60FFF77EFD804697FAA7F397FAD0
:10108800A7F397FAA7F3726A97FAA7F3B3FA83F369
:1010980003F01F0304FA03F313427FF4E8AEFFF7EB
:1010A80069FDA0EB08000228E7D934E794FAA4F315
:1010B800B3FA83F30B449B0002271A60FFF75AFD2B
:1010C800804697FAA7F397FAA7F397FAA7F3726AF5
:1010D80097FAA7F3B3FA83F303F01F0304FA03F3B1
:1010E80013423FF4C4AEFFF745FDA0EB0800022809
:1010F800E7D910E71D4CE369D90034D4E36943F01C
:101108008053E361E36903F080530193019B012657
:10111800184F3B68DA052FD5EB68012B3DD1236AC0
:1011280043F001032362FFF725FD02278246B946F3
:101138004FF0010897FAA7F397FAA7F3002B6CD0A2
:10114800226A99FAA9F3B3FA83F303F01F0308FAA2
:1011580003F3134258D0002E3FF48DAEE36923F019
:101168008053E36187E60026D2E700BF0010024003
:1011780020819010007000403B6843F480733B600E
:10118800FFF7F8FC80463B68DB05C5D4FFF7F2FCA7
:10119800A0EB08006428F6D9BDE63BBB236A23F020
:1011A80001032362236A23F004032362FFF7E2FCAE
:1011B80002278246B9464FF0010897FAA7F397FA33
:1011C800A7F373B3226A99FAA9F3B3FA83F303F086
:1011D8001F0308FA03F31342BDD0FFF7CBFC41F21B
:1011E8008833A0EB0A009842E7D994E6052B236AD6
:1011F80003D143F00403236291E723F00103236240
:10120800236A23F004038DE7FFF7B4FC41F2883327
:10121800A0EB0A0098428DD97DE697FAA7F3626A97
:101228008FE797FAA7F3626ACDE7414C636803F04A
:101238000C03082B3FF40CAE022A4FF0807352D1F6
:1012480093FAA3F3B3FA83F303F1845303F58413F6
:101258009B0000221A60FFF78DFC4FF00077804654
:10126800012697FAA7F3226897FAA7F3B3FA83F34C
:1012780003F01F0306FA03F313422DD162686B6A69
:10128800296A22F474120B43134363604FF080738E
:1012980093FAA3F3B3FA83F303F1845303F58413A6
:1012A8009B004FF000751E60FFF764FC012607469F
:1012B80095FAA5F3226895FAA5F3B3FA83F303F038
:1012C8001F0306FA03F313427FF4D9ADFFF752FC6C
:1012D800C01B0228ECD91EE6FFF74CFCA0EB080067
:1012E8000228BED917E693FAA3F3B3FA83F303F1FE
:1012F800845303F584139B0000221A60FFF73AFC1D
:101308004FF000750746012695FAA5F3226895FA6D
:10131800A5F3B3FA83F303F01F0306FA03F31342AA
:101328003FF4ADADFFF726FCC01B0228ECD9F2E56F
:101338000010024010B5134C616801F00C03082B33
:101348001ED14FF4701393FAA3F301F47012B3FA99
:1013580083F322FA03F30C4AD05CE36A0F2292FA71
:10136800A2F2B2FA82F203F00F03D340074AD25C2A
:10137800CB034ABF064B074BB3FBF2F3584310BDF0
:10138800034810BD00100240605200087052000867
:1013980000127A0000093D002DE9F0410D4604468F
:1013A80010B90120BDE8F0814C4A136803F0070327
:1013B8008B422ED32268910736D4D2073CD4474AB1
:1013C800136803F007039D4275D32268444D12F059
:1013D800040F7CD1130706D56B68226923F4605388
:1013E80043EAC2036B60FFF7A5FF6B68F02292FA2D
:1013F800A2F2B2FA82F203F0F003D340394AD35C86
:10140800D840394B18600020FFF772FB0020BDE878
:10141800F081136823F007030B431360136803F08C
:1014280007039942BDD1C5E72D49A0684B6823F051
:10143800F00303434B60C0E76268294E012A27D1B5
:101448004FF4003393FAA3F1316893FAA3F3B3FA94
:1014580083F303F01F0302FA03F30B42A1D073686E
:1014680023F003031A437260FFF784FB41F28838C4
:1014780007467368626803F00C03B3EB820F9ED0D3
:10148800FFF778FBC01B4045F3D90320BDE8F08186
:10149800022A0CBF4FF00073022393FAA3F13068BD
:1014A80093FAA3F3B3FA83F303F01F03012101FABC
:1014B80003F30342D2E7136823F007032B431360B7
:1014C800136803F007039D427FF46BAF7DE76B68F9
:1014D800E16823F4E0630B436B607BE70020024084
:1014E80000100240915200080C000020084B4FF4F5
:1014F800E0625B6892FAA2F2B2FA82F203F4E06365
:10150800D340044AD35C044A1068D840704700BFEF
:1015180000100240A15200080C000020084B4FF4B4
:1015280060525B6892FAA2F2B2FA82F203F4605354
:10153800D340044AD35C044A1068D840704700BFBF
:1015480000100240A15200080C00002003682DE999
:10155800F3470546D80320D5504CE369D90044D455
:10156800E36943F08053E361E36903F08053019337
:10157800019B01264A4F3B68DA0538D5236A13F4E4
:10158800407348D1236A6A6823F440731343236283
:101598001EB1E36923F08053E3612868C10706D5CB
:1015A8003E4AA968136B23F003030B4313638206B7
:1015B80006D53A4AE968136B23F010030B4313630B
:1015C800030606D5354A2969D36A23F4F8730B4311
:1015D800D36210F480501BD0304A6969136B23F42E
:1015E80080730B431363002012E00026C2E73B68B8
:1015F80043F480733B60FFF7BDFA80463B68DB0528
:10160800BCD4FFF7B7FAA0EB08006428F6D903208A
:1016180002B0BDE8F0876A6802F440729342B1D024
:10162800216A4FF4803321F4407093FAA3F2DFF873
:1016380074E0B2FA82F2724492000127176093FABA
:10164800A3F3B3FA83F373449B0000221A60206269
:10165800C80797D5FFF78EFA4FF002088246C146B1
:1016680098FAA8F398FAA8F39BB1226A99FAA9F311
:10167800B3FA83F303F01F0307FA03F3134281D18C
:10168800FFF778FA41F28833A0EB0A009842E7D9CD
:10169800BDE798FAA8F3626AE8E700BF00100240C5
:1016A800007000400081901070470000214A0368D4
:1016B800904210B505D0B0F1804F02D01E4CA04228
:1016C8000CD14C6823F07003904243EA040310D015
:1016D800B0F1804F0DD0184A90420AD0174A904274
:1016E80007D002F58062904203D002F580629042F2
:1016F80003D1CA6823F4407313434A6923F0800373
:10170800134303608B68C3620B688362094B98427A
:101718000BD003F5A053984207D003F58063984295
:1017280003D003F58063984201D10B690363012359
:10173800436110BD002C01400004004000400140FE
:1017480010B50446A0B190F83D3003F0FF021BB974
:1017580080F83C2001F058F9022384F83D302068D5
:10176800211DFFF7A3FF012384F83D30002010BDA1
:10177800012010BD10B50446A0B190F83D3003F02B
:10178800FF021BB980F83C20FFF78EFF022384F884
:101798003D302068211DFFF789FF012384F83D3083
:1017A800002010BD012010BD036A23F0010303626D
:1017B800036A70B5446882690D6822F4803222F0A9
:1017C80073022A438D6823F002032B43174DA84266
:1017D8000BD005F5A055A84207D005F58065A842AD
:1017E80003D005F58065A8421AD1CD6823F0080317
:1017F8002B430E4DA84223F004030BD005F5A0554A
:10180800A84207D005F58065A84203D005F5806594
:10181800A84205D124F440758E694C6934432C43A1
:10182800446082614A684263036270BD002C0140D3
:10183800036A23F010030362036A426870B584697F
:101848000D6824F0807424F4E64444EA05248D6885
:1018580023F0200343EA0513104DA8420ED1CD68AA
:1018680023F0800343EA051323F040034D698E6992
:1018780022F44062354342EA850209E0084DA84255
:10188800F4D0084DA842F1D005F58065A842EDD006
:1018980042604A6884618263036270BD002C014023
:1018A8000040014000440140036A23F4807303624E
:1018B800036A426870B5C4690D6824F4803424F062
:1018C80073042C438D6823F4007343EA0523114DF8
:1018D800A8420ED1CD6823F4006343EA052323F41C
:1018E80080634D698E6922F44052354342EA0512FD
:1018F80009E0094DA842F4D0084DA842F1D005F5F9
:101908008065A842EDD042604A68C461C263036240
:1019180070BD00BF002C0140004001400044014060
:10192800036A23F480530362026A30B54468C369CA
:101938000D6823F0807323F4E64343EA05238D689A
:1019480022F4005242EA05320C4DA8420BD005F5AC
:10195800A055A84207D005F58065A84203D005F533
:101968008065A84204D14D6924F4804444EA851472
:101978004460C3614B680364026230BD002C0140BF
:1019880010B584680A4324F47F4442EA03232343BE
:10199800836010BD90F83C30012B70B504464FF0C1
:1019A80002001AD084F83D002068012384F83C30F6
:1019B8008268524B134083600B68402B75D018D84F
:1019C800102B00F08F8009D8002B00F085800123B0
:1019D800002084F83D3084F83C0070BD202B00F0D6
:1019E8008780302BF3D1836823F0700343F03703EB
:1019F80033E0702B33D01BD8502B3FD0602BE6D16F
:101A08004D68CE68016A21F0100101628269036A9B
:101A180022F4704223F0A00343EA051342EA063297
:101A280082610362836823F0700343F0670314E064
:101A3800B3F5805F0CD0B3F5005FC8D1CB684A68B6
:101A48008968FFF79DFF2268936843F4804313E099
:101A5800836823F4803323F007038360B7E7CB68F8
:101A68004A688968FFF78CFF2268936823F48033FB
:101A780023F0770343F077039360A8E74A68CE68BA
:101A8800016A056A25F001050562836921F00A01EA
:101A980023F0F00343EA06130A4383610262836872
:101AA80023F0700343F05703D7E74A68CE68016A0A
:101AB800056A25F001050562836921F00A0123F012
:101AC800F00343EA06130A4383610262836823F042
:101AD800700343F04703C0E7836823F0700343F0C3
:101AE8000703BAE7836823F0700343F01703B4E7EA
:101AF800836823F0700343F02703AEE78800FEFFF6
:101B0800036A10B501248C4023EA04030362036AC4
:101B18008A401A43026210BD10B5044601220068CB
:101B2800FFF7EEFF23680C4A93420BD002F5A05250
:101B3800934207D002F58062934203D002F5806297
:101B4800934203D15A6C42F400425A641A6842F034
:101B580001021A60002010BD002C0140036A23F422
:101B680080330362026A30B54468436D0D6823F41C
:101B7800803323F070032B438D6822F4003242EA4D
:101B880005420D4DA8420BD005F5A055A84207D037
:101B980005F58065A84203D005F58065A84204D103
:101BA8004D6924F4803444EA0524446043654B6855
:101BB8008365026230BD00BF002C0140036A23F434
:101BC80080130362026A30B54468436D0D6823F0E0
:101BD800807323F4E04343EA05238D6822F400125E
:101BE80042EA05520C4DA8420BD005F5A055A84273
:101BF80007D005F58065A84203D005F58065A842A1
:101C080004D14D6924F4802444EA85244460436562
:101C18004B68C365026230BD002C014038B590F8AE
:101C28003C30012B04460D464FF0020010D0012332
:101C3800082A84F83C3084F83D0043D009D8FAB12A
:101C4800042A2ED00123002084F83D3084F83C007B
:101C580038BD102A47D0142A56D00C2AF2D1206851
:101C6800FFF75EFE23682969DA6942F40062DA61E7
:101C7800DA6922F48062DA61DA6942EA012230E044
:101C88002068FFF791FD236829699A6942F00802E4
:101C98009A619A6922F004029A619A690A439A61E0
:101CA800D0E72068FFF7C4FD236829699A6942F4E0
:101CB80000629A619A6922F480629A619A6942EA9A
:101CC8000122ECE72068FFF7EFFD23682969DA694C
:101CD80042F00802DA61DA6922F00402DA61DA69AC
:101CE8000A43DA61AEE72068FFF738FF236809691D
:101CF8005A6D42F008025A655A6D22F004025A657C
:101D08005A6D0A435A659DE72068FFF757FF236815
:101D180009695A6D42F400625A655A6D22F480626C
:101D28005A655A6D42EA0122ECE7000090F83C300F
:101D3800012B30B518D002680C4D53689468AA423C
:101D480002BF4D6823F470032B430D68896823F0A4
:101D580070032B4324F080045360214300239160D7
:101D680080F83C30184630BD022030BD002C0140C0
:101D780090F83C30012B10B534D0CB688A681A4CE7
:101D880023F4407313434A6823F4806313430A68B7
:101D980023F4006313430A6923F4805313434A6905
:101DA80023F4005313438A6A23F4404313438A6994
:101DB80023F4702343EA02430268A2420CD14C6A1E
:101DC80023F4700343EA0453CC69096A23F080734F
:101DD800234323F000730B435364002380F83C3003
:101DE800184610BD022010BD002C014003681A6877
:101DF80022F490721A609A6822F001029A602023F5
:101E080080F86A30704790F86A30202B3DD100295D
:101E180039D0002A37D090F86830012B35D001230B
:101E280080F8683083684165B3F5805FA0F8582072
:101E3800A0F85A2019D10369ABB940F2FF13A0F8F2
:101E48005C3000232222C36680F86A20026880F88A
:101E58006830916841F001019160116841F4907116
:101E6800116018467047FF23E9E723B90369002B7F
:101E7800F9D07F23E3E7B3F1805FE2D10369002B58
:101E8800F7D03F23DBE701207047022070477047F7
:101E9800704708B5406A0023A0F85A30A0F85230BD
:101EA800FFF7F6FF08BD000038B50446056821694C
:101EB800A368C26928680B4361690B434949134306
:101EC80001400B432B606B68E168206A23F44053A0
:101ED8000B436B60A968A36921F4306103430B438A
:101EE800AB60414B9D4212D103F558433F491B6BF0
:101EF80003F00303B2F5004FCB5C3BD1082B36D877
:101F0800DFE803F00F2124352D3535353000384B07
:101F18009D4203D003F580639D425ED1B2F5004F28
:101F280031D1FFF7E3FA61684A0802EB4003B3FBDB
:101F3800F1F39BB2002023F00F022168C3F34203A0
:101F48001343CB6038BDFFF7E9FAECE76068430854
:101F580003F5740303F51053B3FBF0F3E9E7FFF758
:101F6800E9F9E0E76068430803F58033F4E7012006
:101F78000023E0E7082B33D8DFE803F005101B3215
:101F8800273232322A00FFF7B1FA636800EB5300B8
:101F9800B0FBF3F080B2E860002038BDFFF7BEFA6E
:101FA800636800EB5300B0FBF3F00F4B80B2D860CE
:101FB800F2E76268530803F5F40303F59053B3FBA3
:101FC800F2F3094A9BB2D360E6E7FFF7B3F9E7E714
:101FD8006268530803F50043F1E7B2F5004FC6D035
:101FE800012038BDF369FFEF003801408052000836
:101FF80000440040436ADA0710B506D50168846AD0
:102008004A6822F4003222434A609C0706D50168D8
:10201800C46A4A6822F4803222434A60590706D5C6
:102028000168046B4A6822F4802222434A601A0736
:1020380006D50168446B4A6822F4004222434A608C
:10204800DC0606D50168846B8A6822F48052224334
:102058008A60990606D50168C46B8A6822F4005222
:1020680022438A605A060FD50168046C4A6822F434
:1020780080122243B4F5801F4A6005D14A68446C37
:1020880022F4C00222434A601B0606D50268816C0E
:10209800536823F400230B43536010BD2DE9F0412E
:1020A800069D04460F46164698462168CA6937EACF
:1020B80002030CBF01220022B24202D00020BDE878
:1020C800F0816B1CF2D09DB923681A6822F4D07293
:1020D8001A609A6822F001029A60202384F8693015
:1020E80084F86A30002384F868300320BDE8F08162
:1020F800FEF740FDA0EB08008542D6D2E4E72DE9C3
:10210800F3411F4690F86930202B04460D4690464F
:102118004CD1002948D0002A46D090F86830012BCD
:1021280044D0012380F868300023C366212380F857
:102138006930FEF71FFDA4F850800646A4F85280C7
:10214800B4F8522092B262B9009733464021204633
:10215800FFF7A4FF98B9202384F8693084F8680051
:102168000EE0B4F852300097013B9BB2A4F852300D
:102178000022334680212046FFF790FF18B1032044
:1021880002B0BDE8F081A3682268B3F5805F07D18B
:1021980023692BB935F8023BC3F308031385CFE74E
:1021A8002B7813850135CBE70120E9E70220E7E723
:1021B80073B504460026C666FEF7DCFC23681B6878
:1021C8001A07054617D423681B685B070AD56FF002
:1021D8007E43009300222B464FF480012046FFF7F0
:1021E8005DFFA0B92023002084F8693084F86800D6
:1021F80084F86A300CE06FF07E4300933246034661
:102208004FF400112046FFF749FF0028DBD00320D8
:1022180002B070BD10B5044660B390F8693003F0A1
:10222800FF021BB980F8682000F00AFE2268242308
:1022380084F86930136823F0010313602046FFF720
:1022480033FE012816D0636A13B12046FFF7D2FE89
:1022580023685A6822F490425A609A6822F02A0247
:102268009A601A6842F0010220461A60BDE81040E0
:10227800FFF79EBF012010BD90F86930212B27D1B0
:10228800B0F8523002689BB24BB9116821F0800156
:102298001160116841F040011160002070478368A7
:1022A800B3F5805FC36C0ED1016961B933F8021BC5
:1022B800C1F308011185C364B0F85230013B9BB2E9
:1022C800A0F85230E9E7591CC1641B781385F3E77D
:1022D80002207047016808B50B6823F040030B60C3
:1022E800202380F86930FFF7D2FD002008BD90F860
:1022F8006A30222B10B5036829D1998C8368B0F80D
:102308005C20B3F5805F02EA0102436D1BD10169CD
:10231800C9B923F8022B4365B0F85A40013CA4B26E
:10232800A0F85A406CB903681A6822F490721A60CF
:102338009A6822F001029A60202380F86A3000F03F
:1023480031F9002010BD591C41651A70E4E79A69FB
:1023580042F008029A61022010BD00000268D369A9
:10236800116870B513F00F05044607D19E0605D510
:102378008E0603D5BDE87040FFF7B9BF9068002D01
:102388005CD010F0010502D111F4907F56D0D80727
:1023980007D5CE0505D501201062E06E40F001009A
:1023A800E066980706D52DB102201062E06E40F075
:1023B8000400E0665E0706D52DB104201062E06EC9
:1023C80040F00200E066180707D58E0600D425B154
:1023D80008201062E26E0243E266E26E002A50D0E4
:1023E800980604D58A0602D52046FFF780FFE36EDB
:1023F8001B07204604D423689D6815F0400519D0B2
:10240800FFF7F4FC23689A6856060FD59A68606E41
:1024180022F040029A6048B11A4B4363FEF72CFC45
:1024280078B3606EBDE87040436B18472046FFF7ED
:102438002FFD70BDFFF72CFDE56670BDDD020ED5E2
:1024480046020CD54FF480131362202384F86930B8
:10245800204684F86A30BDE8704000F015B81D06C3
:1024680006D5080604D52046BDE87040FFF704BF2E
:102478005A0606D54B0604D52046BDE87040FFF73E
:1024880029BF70BD9B1E000870470000F0B589B0D9
:102498001422002103A800F097FD284B284F5A6901
:1024A800284E42F480025A615A6902F4800200926E
:1024B800009A5A6942F400325A615A6902F40032A9
:1024C8000192019A5A6942F480225A615B6903F4C5
:1024D80080230293384600220221029BFEF7AAFCC1
:1024E80000224FF480714FF09040FEF7A3FC0022C9
:1024F80030463821FEF79EFC00240125022303A95B
:1025080038460393049505940694FEF7D9FB4FF4D7
:10251800807303A94FF090400393049505940694A3
:10252800FEF7CEFB382303A93046039304950594A0
:102538000694FEF7C5FB09B0F0BD00BF00100240CD
:10254800001400480004004870B54FF0804440F281
:10255800EE256563C820FEF713FB114EA563C8205E
:10256800FEF70EFBE563C820FEF70AFBB5634FF4E0
:1025780048704FF47A75FEF703FB6563C820FEF7D1
:10258800FFFAA563C820FEF7FBFAE563C820FEF74B
:10259800F7FAB5634FF44870BDE87040FEF7F0BA3B
:1025A8000004004070B5054640214FF09040FEF70A
:1025B80046FC2A68174B9A4211D1174C174801223A
:1025C8002146FFF720FC0A23012221461348FFF782
:1025D80096FD134B22781A70124B01221A702A6842
:1025E800114B9A4214D1114C114821460222FFF78F
:1025F8000AFC104B21780E4801221A700E4B1970F4
:102608000E4963780B70BDE870400A23FFF777BD69
:1026180070BD00BF00440040200200206803002075
:102628000C02002008000020003801402B02002086
:10263800F8020020FC01002004020020050200200E
:10264800F8B5084F0E4615460024AC4201DB284673
:10265800F8BD31194FF6FF7301223846FFF74FFDD9
:102668000134F2E76803002030B597B02822002132
:102678000CA800F0A9FC1422002101A800F0A4FC79
:1026880018220DEB0200002100F09EFC012310939C
:102698001023022511930CA84FF4601315930C9581
:1026A8001395FEF7D1FB0F230024019329464FF41D
:1026B800806301A80493029503940594FEF76CFEC9
:1026C80041F2010306A8069308940B94FEF73EFF17
:1026D80017B030BD80B5FEF72FFAFFF7C5FFFFF73B
:1026E800D5FE00F08FFB00F03DFA00F0AFFA00F0E5
:1026F8000FFB00F069FB002211462620FEF766FA60
:102708002620FEF797FA002211462520FEF75EFAEA
:102718002520FEF78FFA00215B485C4D5C4EFFF7E1
:10272800FBF904215848FFF7F7F908215648FFF745
:10273800F3F90C215448FFF7EFF904215548FFF746
:10274800EBF908215348FFF7E7F90C215248FFF746
:10275800E3F908215148FEF772FB02215048FEF7C1
:102768006EFB4FF480714FF09040FEF768FB20211C
:102778004A48FEF764FB10214848FEF760FBC82072
:10278800FEF7FEF902214648FEF759FB4FF4807127
:102798004FF09040FEF753FB20214048FEF74FFBD7
:1027A80010213E48FEF74BFBC820FEF7E9F902224C
:1027B80037493C48FFF727FB4FF080434FF47A74C2
:1027C8005C639C63DC631C6403F59633AC63EC6365
:1027D8001C644FF42F73EB634FF44870FEF7D0F985
:1027E800FFF7B2FE304BEC634FF4FA721A802F4BAE
:1027F8002F48304D2B4C40F226221A802E4B4FF496
:1028080061721A802D4B40F2EE221A802C4B2D4A11
:102818001A6000F089FF4FF0000702223146204677
:102828002F70FFF7F0FA284B1B78C3EBC32203EB9A
:102838008202C3EBC20303F57A73244A9BB2138066
:10284800234A1278013A052AE7D8DFE802F0030D97
:102858001115171A4FF0804253630A2301221A49AF
:102868002046FFF74CFCD6E74FF080429363F4E72D
:102878004FF08042D363F0E7044AF7E7154A136440
:10288800EBE7024AF6E700BFB80200200004004068
:102898002B020020380200207802002000040048A3
:1028A80000140048F802002000020020FE01002069
:1028B80084520008FC0100200E02002002020020C1
:1028C800080200200000E040050200200602002067
:1028D80004020020002C0140704700000A4B9A694E
:1028E80042F001029A619A6982B002F001020092F4
:1028F800009ADA6942F08052DA61DB6903F08053AA
:102908000193019B02B07047001002407047FEE738
:10291800FEE7FEE7FEE7704770477047FEF71EB90F
:102928000148FFF71BBD00BFF80200200148FFF770
:1029380015BD00BF6803002070B50E4615460C464D
:10294800A31B9D4201DC284670BDAFF3008004F84C
:10295800010BF5E708B50A4B1968024609B9094998
:1029680019601868694602448A4206D900F002FBD9
:102978000C2303604FF0FF3008BD1A6008BD00BF8C
:1029880010020020DC0300204FF0FF3070474FF4A6
:1029980000534B60002070470120704700207047AB
:1029A8001549D1F8883043F47003C1F88830134BC7
:1029B8001A6842F001021A605868114A02405A60C7
:1029C8001A6822F0847222F480321A601A6822F49B
:1029D80080221A605A6822F4FE025A60DA6A22F0EB
:1029E8000F02DA62186B074A02401A6300229A60E3
:1029F8004FF000638B60704700ED00E0001002406C
:102A08000CC07FF8CCFC00FF0368164A934284B0E0
:102A18000BD1154B9A6942F400629A619B6903F4E1
:102A280000630193019B04B07047B3F1804F0BD151
:102A380003F50433DA6942F00102DA61DB6903F075
:102A480001030293029BEEE7084A9342EBD1064B3F
:102A5800DA6942F00202DA61DB6903F002030393E8
:102A6800039BE0E7002C01400010024000040040F6
:102A780010B514228AB0044600210DEB020000F0C4
:102A8800A3FA2368334A934217D1334B5A6942F465
:102A980000325A615B6903F400330193019B4FF4E0
:102AA80000630593022306930B23099305A94FF0AE
:102AB8009040FEF705F90AB010BDB3F1804F1ED162
:102AC80003F5043302245A6942F400325A615B69FF
:102AD800069403F400330293029B0323059305A98C
:102AE80001234FF090400993FEF7EAF84FF4007382
:102AF800059300230793089306940A23D5E7174AFA
:102B08009342D8D1144B5A6942F400325A615A6937
:102B180002F400320392039A5A6942F480225A61FD
:102B28005B6903F4802304930224049B0694102316
:102B380005A94FF0904005930994FEF7C1F80123C9
:102B480005930023069407930893099405A904485C
:102B5800AFE700BF002C0140001002400004004015
:102B68000004004810B510229AB0002400210DEB93
:102B7800020000F029FA1C22214608A801940294B8
:102B8800039400F021FA2C2221460FA800F01CFA29
:102B98002C482D4A84607F2380E80C0042F20F7392
:102BA800C360046144618461FEF7CAFD08B1FFF7A0
:102BB80093FE4FF4805304A922480493FEF7EAFEDB
:102BC80008B1FFF789FE1F48FEF7D4FD08B1FFF7EB
:102BD80083FE002301A91B48019302930393FFF787
:102BE800A5F808B1FFF778FE6023002408930C22AB
:102BF8004FF47A7308A9134809930A940C940D9416
:102C08000E94FFF70BF808B1FFF766FE4FF4005378
:102C180014930FA94FF000730A480F94109411945D
:102C28001294139415941694179318941994FFF703
:102C38009FF808B1FFF750FE0248FFF719FF1AB0D6
:102C480010BD00BF78020020002C014010B58EB0E6
:102C58001022002103A800F0B7F900241C220DEB74
:102C68000200214600940194029400F0ADF927482F
:102C78007F234FF0804280E80C0042F20F7384609B
:102C8800C36004618461FEF75BFD08B1FFF724FEB1
:102C98004FF4805303A91D480393FEF77BFE08B148
:102CA800FFF71AFE1948FEF765FD08B1FFF714FE95
:102CB80000236946154800930293FFF737F808B1D7
:102CC800FFF70AFE60230022079307A94FF47A73DF
:102CD8000E48089309920B92FEF7A0FF08B1FFF780
:102CE800FBFD042207A90948FEF798FF08B1FFF782
:102CF800F3FD082207A90548FEF790FF08B1FFF782
:102D0800EBFD0248FFF7B4FE0EB010BDB80200207C
:102D180010B58EB01022002103A800F055F9002448
:102D28001C220DEB0200214600940194029400F04D
:102D38004BF92348234A84607F2380E80C0042F241
:102D48000F73C36004618461FEF7FAFC08B1FFF7F2
:102D5800C3FD4FF4805303A919480393FEF71AFEE5
:102D680008B1FFF7B9FD1648FEF704FD08B1FFF7F3
:102D7800B3FD00236946124800930293FEF7D6FF7D
:102D880008B1FFF7A9FD602307934FF47A730893FE
:102D98000422002307A90A4809930B93FEF73EFF74
:102DA80008B1FFF799FD082207A90548FEF736FF85
:102DB80008B1FFF791FD0248FFF75AFE0EB010BDAB
:102DC800380200200004004008B50C480C4B4FF4B2
:102DD800E13E80E808400C2200238360C360036161
:102DE80042618361C36103624362FFF713FA18B15A
:102DF800BDE80840FFF770BD08BD00BFF80200201D
:102E08000038014008B50C480C4B4FF4E13E80E80F
:102E180008400C2200238360C36003614261836120
:102E2800C36103624362FFF7F5F918B1BDE80840D2
:102E3800FFF752BD08BD00BF6803002000440040F2
:102E480070B514228AB0044600210DEB020000F090
:102E5800BBF823682E4A934236D12E4B9A6942F426
:102E680080429A619A6902F480420092009A5A69F3
:102E780042F400325A615A6902F400320192019A0E
:102E88005A6942F480225A615B6903F480230293F1
:102E9800029B02264FF480630325072405A94FF0FF
:102EA80090400593069608950994FDF709FF40237D
:102EB800059319480696002307930895099405A9D0
:102EC800FDF7FEFE0AB070BD144A9342FAD1114BC9
:102ED800DA6942F40032DA61DA6902F40032039204
:102EE800039A5A6942F400325A615B6903F4003369
:102EF8000493049B48F204030593022306930323D7
:102F080008930723099305A94FF09040D8E700BF1D
:102F1800003801400010024000040048004400400E
:102F2800DFF834D0002103E00C4B5B5843500431E8
:102F38000B480C4B42189A42F6D30B4A02E0002386
:102F480042F8043B094B9A42F9D3FFF729FD00F0F8
:102F580017F8FFF7BFFBFEE70030002040550008D8
:102F680000000020E0010020E0010020DC03002038
:102F7800FEE70000014B1868704700BF10000020F2
:102F880070B50D4E0D4CA41BA4100025A54209D107
:102F98000B4E0C4C02F054F9A41BA4100025A542BA
:102FA80005D170BD56F8253098470135EEE756F83B
:102FB800253098470135F2E738550008385500089C
:102FC800385500083C55000802440346934200D196
:102FD800704703F8011BF9E72DE9FF4755EC104B43
:102FE8000D9FDDF830A0002D0E4691461946B8BF5A
:102FF80022462B4627F02007BBBF05F100431D469C
:1030080000232D23B8BF1446462F0B7004D0452F3C
:1030180000D10136022100E0032103AB019302AB8A
:1030280000933246534645EC104B00F0D1FC472F35
:10303800804602D119F0010F26D0462F08EB060969
:1030480011D198F80030302B0AD1002200232046F5
:103058002946FDF7DDFC18B9C6F10106CAF800607B
:10306800DAF8003099440022002320462946FDF76B
:10307800CFFC38B93022039B994505D9591C0391D7
:103088001A70F8E7CDF80C90039B0E9AA3EB08038F
:103098004046136004B0BDE8F087F7B50346002941
:1030A800B8BF494203F8022BB4BF2D222B220929AD
:1030B800427020DD0DF1070217460A2691FBF6F54E
:1030C80006FB15113031092D02F8011C02F1FF34FD
:1030D800294609DC3031023A04F8011CBA421C4680
:1030E80004D3201A03B0F0BD2246E7E712F8011B0B
:1030F80003F8011BF2E730221C46114404F8022BA6
:103108005970EEE72DE9F04F8DB00C46DDF8588088
:1031180016461F46054601F0A5FB036804931846AA
:10312800FDF74EF800230A93D8F8003005900733CE
:1031380023F0070303F1080294F818A0D4F800B0AC
:10314800C8F80020D3E90023C4E91223D4E912897E
:1031580029F000430793CDF818804FF0FF32A54BB4
:10316800DDE90601FDF786FC002840F0FB814FF001
:10317800FF32A04BDDE90601FDF75EFC002840F0B8
:10318800F1810022002340464946FDF74BFC10B16F
:103198002D2384F84330984B984ABAF1470F8CBFD7
:1031A8009046984603232BF00402236122604FF0D7
:1031B8000009009733460BAA2146284600F0E2F999
:1031C800013040F093804FF0FF300DB0BDE8F08F34
:1031D80061684B1C4BF480623FD106236360002377
:1031E80003930AAB029309AB009349EC108B0DF1E2
:1031F80023032260CDF804A061682846FFF7ECFE9F
:103208000AF0DF03472B804609D1099BD81C02DB53
:103218006268934257DDAAF1020A5FFA8AFABAF1A4
:10322800650F099934D80139524604F150000991C3
:10323800FFF733FF0A9A8318012A8146236102DCCB
:103248002268D10701D5013323619DF82330002B73
:10325800AFD02D2384F84330ABE7BAF1670F02D023
:10326800BAF1470FBBD189B1002303930AAB02938C
:1032780009AB009349EC108B2260CDF804A00DF146
:1032880023032846FFF7A8FE8046BEE70123A5E7EB
:10329800BAF1660F19D1002963680CDD216113B9F1
:1032A8002268D20702D501330B442361099BA36529
:1032B8004FF00009C9E713B92268D00701D50233D6
:1032C800F3E70123F1E74FF0670A099B0A9A934253
:1032D80005DB22682361D107E8D50133E5E7002B38
:1032E800D4BFC3F1020301231344DEE723685A0560
:1032F80007D42369424631462846B84701302BD1C6
:1033080061E7BAF1650F40F2E28000220023D4E9B8
:103318001201FDF77DFB00283CD00123384A3146D5
:103328002846B84701303FF44EAF0A9B099A9A42A3
:1033380002DB2368D8070FD5059B049A3146284637
:10334800B84701303FF43FAF4FF0000804F11A09C5
:103358000A9B013B984512DB23689B0709D54FF070
:10336800000804F11909E3680B9A9B1A9845C0F202
:10337800EE80E0680B9B9842B8BF184625E701230A
:103388004A4631462846B84701303FF41CAF08F199
:103398000108DDE7099B002B34DC0123184A31467C
:1033A8002846B84701303FF40EAF099B23B90A9B62
:1033B80013B92368D907CFD5059B049A3146284607
:1033C800B84701303FF4FFAE4FF0000904F11A0A84
:1033D800099B5B42994501DB0A9B8BE70123524617
:1033E80031462846B84701303FF4EDAE09F10109EE
:1033F800EEE700BFFFFFEF7FB0520008B4520008AD
:10340800C05200080A9AA36D9A42A8BF1A46002A19
:10341800914638DC04F11A034FF0000B29EAE979E8
:103428000693D4F858A0AAEB09039B4533DB0A9B03
:10343800099A9A423ADB2368DA0737D40A9B099932
:10344800A3EB0A02A3EB01099145A8BF9146B9F184
:10345800000F33DC4FF0000829EAE97904F11A0A71
:10346800099A0A9B9B1AA3EB09039845BFF674AF08
:103478000123524631462846B84701303FF4A3AEEF
:1034880008F10108ECE71346314642462846B8479A
:103498000130BFD197E60123069A31462846B8473E
:1034A80001303FF490AE0BF1010BBAE7059B049A8B
:1034B80031462846B8470130C0D184E64B4608EB70
:1034C8000A0231462846B8470130C3D17BE60A9A3A
:1034D800012A01DCDB0737D501234246314628465D
:1034E800B84701303FF46FAE059B049A3146284631
:1034F800B84701303FF467AE00220023D4E9120137
:10350800FDF786FA58B14FF0000804F11A0A0A9B31
:10351800013B98450DDB4B4604F15002EBE60A9B54
:1035280008F10102013B31462846B8470130F2D183
:1035380049E60123524631462846B84701303FF450
:1035480042AE08F10108E2E701234246EBE7012316
:103558004A4631462846B84701303FF434AE08F1B0
:10356800010800E742464B4640464946FDF782FAC5
:1035780000283FF42DAE014B014A0EE6B852000870
:10358800BC5200082DE9F04791461F468A680B692E
:10359800DDF820809342B8BF1346C9F8003091F88F
:1035A800432006460C4612B10133C9F8003023689F
:1035B800990642BFD9F800300233C9F800302568AF
:1035C80015F0060507D104F1190AE368D9F80020B7
:1035D8009B1A9D4229DB94F843302268003318BFB8
:1035E800012392062ED404F1430239463046C047DF
:1035F800013021D02368E568D9F8002003F00603DC
:10360800042B08BFAD1AA36822690CBF25EAE5752B
:1036180000259342C4BF9B1AED184FF000091A34D5
:103628004D451BD10020BDE8F0870123524639469D
:103638003046C047013003D14FF0FF30BDE8F08776
:103648000135C2E7E1185A1C302081F843002244B2
:1036580094F8451082F843100233C4E70123224648
:1036680039463046C0470130E6D009F10109D7E7AD
:1036780070B50E46054618B183690BB901F068F8B4
:10368800AB69AC6813B9284601F062F8234B9C4239
:1036980017D16C68A3891B071DD52369DBB1013ECF
:1036A800A36816F8011F013BA360E9B9002B2EDAC5
:1036B80022460A21284600F03FF8013011D00A209E
:1036C80070BD174B9C4201D1AC68E3E7154B9C4297
:1036D80008BFEC68DEE72146284600F07FF800289E
:1036E800DDD04FF0FF3070BD002B04DAA2699342A1
:1036F80006DB0A2904D023685A1C22601970CFE718
:103708002246284600F018F80130C9D1E9E72368B5
:103718000A205A1C2260187070BD00BFF0520008C1
:1037280010530008D0520008024B01461868FFF7F2
:103738009FBF00BF10000020F8B50E46144605468E
:1037480018B183690BB901F003F8214B9C422AD1C7
:103758006C68A369A360A3891A072ED5236963B38C
:1037680023692068C01A6369F6B29842374604DBB9
:103778002146284600F082FF28BBA368013BA360CE
:1037880023685A1C22601E7063690130984204D075
:10379800A389DB0719D50A2E17D12146284600F040
:1037A8006DFF90B10FE00B4B9C4201D1AC68D0E7A4
:1037B800094B9C4208BFEC68CBE72146284600F03D
:1037C8000DF80028CCD04FF0FF373846F8BD00BFC1
:1037D800F052000810530008D0520008324B70B560
:1037E8001D6806460C4625B1AB6913B9284600F09A
:1037F800AFFF2E4B9C420FD16C68B4F90C309AB2D3
:1038080015072CD4D00611D40922326043F04003A6
:10381800A3814FF0FF3070BD254B9C4201D1AC68AD
:10382800EBE7244B9C4208BFEC68E6E7510712D54A
:10383800616B41B104F14403994202D0304601F072
:1038480075FB00236363A38923F02403A38100236A
:10385800636023692360A38943F00803A381236974
:103868004BB9A38903F42073B3F5007F03D0214635
:10387800304601F029F8A28912F001030CD0002388
:10388800A36063695B42A361236953B9B4F90C303F
:1038980013F08000BAD170BD920758BF6369A36066
:1038A800F2E70020F7E700BF10000020F052000800
:1038B80010530008D05200082DE9F74F03690C692E
:1038C8009C42804600F38280013C01F114074FEAD4
:1038D800840E00F1140657F8245056F8240006EB1D
:1038E8000E03013507EB0E090193B0FBF5F595B30F
:1038F8004FF0000A3846B446D34650F8042B93B22A
:1039080005FB03A34FEA134A9BB2ABEB0303120C6C
:10391800BCF800B005FB02A213FA8BF34FEA124A77
:103928001FFA82FBDCF80020CBEB124202EB2342A9
:103938009BB243EA024381454FEA224B4CF8043BD1
:10394800DBD256F80E3033B9019B043B9E421A462F
:1039580030D3C8F81040404601F013FA002825DBA0
:10396800013530464FF0000E57F8042BD0F800C050
:1039780093B2AEEB0303120C13FA8CF3C2EB1C42A6
:1039880002EB23429BB243EA0243B9454FEA224E77
:1039980040F8043BE8D256F8242006EB84032AB901
:1039A800043B9E421A460BD3C8F81040284603B081
:1039B800BDE8F08F1268043B002ACAD1013CC5E774
:1039C8001268043B002AEFD1013CEAE70020EEE749
:1039D8002DE9F04F57EC106B97B0CDE90067466AB8
:1039E800079104460A920F93209D3EB9102000F0DB
:1039F800ABFF6062466086600660C660636A1968ED
:103A080051B15A684A60012393408B60204600F008
:103A1800E2FF636A00221A60019B002BBFBF0123EB
:103A28002B60019B23F00043B2BF019300232B605E
:103A3800DDF80480A84B33EA08031BD10F9A42F241
:103A48000F731360009B23B9C8F31300002800F01C
:103A58007885219B53B9A14B21E0A14B02930833F0
:103A6800219A1360029817B0BDE8F08F9B4B029320
:103A78000333F5E7DDE900670022002330463946C5
:103A8800FCF7C6FF814660B10F9A01231360219BA2
:103A9800002B00F05385934B219A1360013B02934E
:103AA800E0E714AA15A947EC106B204601F0E1F9EC
:103AB800C8F30A558246002D7ED0C7F3130343F09E
:103AC8007F51304641F44011A5F2FF35CDF84890BA
:103AD8000022854BFCF780FB79A3D3E90023FCF790
:103AE8002FFD79A3D3E90023FCF778FB0646284687
:103AF8000F46FCF7BFFC76A3D3E90023FCF720FDB3
:103B080002460B4630463946FCF768FB06460F4628
:103B1800FCF7C6FF00228346002330463946FCF7EF
:103B280081FF58B15846FCF7A5FC02460B463046C3
:103B38003946FCF76DFF08B90BF1FF3BBBF1160FD7
:103B480059D86A4901EBCB01DDE90023D1E900012D
:103B5800FCF786FF002850D00BF1FF3B00230E93A3
:103B6800149B5D1B6B1E069345BFC5F101030593AE
:103B7800002300234CBF06930593BBF1000F3EDBE7
:103B8800069BCDF82CB05B44069300230893079B53
:103B9800092B00F2AF80052BC4BF043B0793079B9A
:103BA800A3F10203CCBF00260126032B00F2AE804E
:103BB800DFE803F082842F77159B149D1D4405F2DE
:103BC8003243202B11DD009A05F21240C3F1400365
:103BD80022FA00F008FA03F31843FCF73BFC012330
:103BE800A1F1F871013D129372E7C3F12000009B27
:103BF80003FA00F0F1E70123B1E70E90B0E7059B67
:103C0800A3EB0B030593CBF10003089300230B935D
:103C1800BDE7012309930A9B002B7ADD04930393E4
:103C2800656A00226A60042101F114029A4275D97A
:103C38006968204600F09BFE636A28601B6802934F
:103C4800039B0E2B00F2E580002E00F0E2809DED34
:103C5800007BBBF1000F8DED0C7B74DD234A0BF06C
:103C68000F034FEA2B1602EBC303F006D3E90089D2
:103C780059D51F4B51EC170BD3E90823FCF78AFDE4
:103C8800CDE9000106F00F060325194F002E4CD18F
:103C980042464B46DDE90001FCF77CFDCDE9000119
:103CA8006AE0012309930A9B5B4404930133012BC7
:103CB8000393B8BF0123B3E70023ABE70023F1E781
:103CC80061436F63A787D23FB3C8608B288AC63F1A
:103CD800FB799F501344D33F0000F07FCB5200087C
:103CE800C2520008C15200080000F83F58530008AB
:103CF8003053000801260023079309964FF0FF333D
:103D080004930393002212230A9289E7012309935B
:103D1800F4E70123049303931A46F5E76A6801322E
:103D28006A60490080E70225AFE7F10708D54046F9
:103D38004946D7E90023FCF703FC0135804689464C
:103D480076100837A2E700F09D80CBF100069F4B64
:103D58009F4F06F00F0203EBC203D3E90023DDE90E
:103D68000C01FCF7EDFBCDE900013611002302251B
:103D7800002E7CD1002B91D10E9B002B00F084806B
:103D8800DDE900890022934B40464946FCF74AFE8C
:103D9800002879D0039B002B76D0049B002B34DDC0
:103DA80000228D4B40464946FCF7CAFBCDE900018D
:103DB800049E0BF1FF3701352846FCF75BFBDDE974
:103DC8000023FCF7BDFB0022844BFCF707FA804672
:103DD800A1F15079002E5AD10022814BDDE9000172
:103DE800FCF7FAF942464B46CDE90001FCF738FEEC
:103DF800002840F09B82424609F10043DDE90001BA
:103E0800FCF710FE002840F08F82DDE90C23CDE995
:103E18000023159B002BC0F25081BBF10E0F00F35D
:103E28004C816A4B03EBCB03D3E900890A9B002B37
:103E380080F2DA80039B002B00F3D68040F0738277
:103E48000022674B40464946FCF77AFBDDE9002330
:103E5800FCF7FCFD039E3746002840F04A82029B8F
:103E6800029A5D1C312313700BF1010B45E2F20736
:103E780005D5D7E90023FCF763FB0135012376104C
:103E8800083775E7022577E75F46039E94E7029AAD
:103E98004E4B32441392099A711E002A48D003EB04
:103EA800C103D3E9002300204E49FCF773FC4246C6
:103EB8004B46FCF791F9029D80468946DDE90001F1
:103EC800FCF7EEFD0646FCF7D5FA02460B46DDE99F
:103ED8000001FCF781F9303605F8016B42464B4684
:103EE800CDE90001FCF79EFD002865D1DDE900233E
:103EF80000203849FCF770F942464B46FCF792FD22
:103F0800002840F0BA80139B9D423FF47EAF002208
:103F1800314B40464946FCF713FB00228046894650
:103F28002D4BDDE90001FCF70BFBCDE90001C5E7EE
:103F380003EBC10142464B46D1E90001FCF700FB07
:103F4800CDE91001029DDDE90001FCF7A9FD064657
:103F5800FCF790FA303602460B46DDE90001FCF723
:103F68003BF905F8016B139BAB42804689464FF03D
:103F7800000225D11B4BDDE91001FCF72FF90246A1
:103F88000B4640464946FCF76BFD002875D1DDE934
:103F9800102300201349FCF71FF902460B46404640
:103FA8004946FCF73FFD00283FF42FAF15F8013CC8
:103FB800302B05F1FF3201D0BB464DE01546F5E741
:103FC800054BFCF7BDFACDE90001BCE758530008E2
:103FD800305300080000F03F0000244000001C405F
:103FE800000014400000E03FDDE90067029D424602
:103FF8004B4630463946FCF7CDFBFCF751FD0090A7
:10400800FCF738FA42464B46FCF79AFA02460B464A
:1040180030463946FCF7E0F8009E039F303605F835
:10402800016B029EAE1BB74202460B4638D1FCF725
:10403800D5F806460F4602460B4640464946FCF769
:10404800F1FCC8B932463B4640464946FCF7E0FC1D
:1040580010B1009BDB070FD45146204600F0BBFC93
:1040680000230F9A2B700BF101031360219B002B87
:104078003FF4F8AC1D60F5E45F4615F8012C392AC9
:1040880005F1FF3306D1029A9A4207D13023137003
:10409800013713461A7801321A708DE71D46ECE78E
:1040A8000022A44BFCF74CFA0022002306460F46D8
:1040B800FCF7AEFC00289AD0CEE7099A002A00F057
:1040C800CD80079A012A00F3AF80129A002A00F0E7
:1040D800A78003F23343089E059D059A1A4405926A
:1040E800069A01211A442046069200F014FD07465C
:1040F800002D0CDD069B002B09DDAB42059AA8BFFD
:104108002B46D21A0592069AED1AD31A0693089BE3
:10411800F3B1099B002B00F0A580002E10DD394675
:104128003246204600F08EFD52460146074620469C
:1041380000F0FAFC51468046204600F04CFCC2468E
:10414800089B9A1B04D05146204600F07BFD82460E
:104158000121204600F0DFFC0B9B002B064640F3B4
:1041680083801A460146204600F06CFD079B012B10
:1041780006467CDD4FF00008336906EB83031869B7
:1041880000F07BFCC0F12000069B184410F01F00D3
:1041980000F09680C0F12003042B40F38780059B34
:1041A800C0F11C0003440593069B05440344069391
:1041B800059B002B05DD51461A46204600F090FD70
:1041C8008246069B002B05DD31461A46204600F044
:1041D80087FD06460E9B002B74D03146504600F0F2
:1041E800D0FD00286EDA002351460A22204600F04E
:1041F80009FC099B0BF1FF3B8246002B00F0A881CC
:10420800002339460A22204600F0FCFB049B002BC1
:10421800074600F3C880079B022B40F3C48059E08F
:10422800149BC3F1360356E7039B5E1E089BB342FB
:10423800BFBF089B0896F21A0B9BB6BF9B189E1B24
:104248000B93039BB8BF0026002BB9BF059B039AAD
:10425800059D039BBCBF9D1A00233EE7089E059D54
:10426800099F45E7089A6EE7079B012B19DC009B1D
:10427800BBB9019BC3F313039BB9019B23F0004314
:104288001B0D1B0583B1059B01330593069B013369
:1042980006934FF001080B9B002B7FF46DAF0120B4
:1042A80072E74FF00008F6E79846F4E780D0059AE1
:1042B8001C331A440592069A1A441D44134676E79D
:1042C8000346F4E7039B002B36DC079B022B33DD08
:1042D800039B0493049B63B931460522204600F0F2
:1042E80091FB01460646504600F04BFD00283FF77B
:1042F800B6AD0A9B029D6FEA030B00230393314678
:10430800204600F068FB002F3FF4A6AE039B2BB1BC
:10431800BB4203D01946204600F05DFB39462046D3
:1043280000F059FB98E600263746E2E7BB463746D9
:1043380095E500BF00002440099B93BB039B0493B1
:10434800029D31465046FFF7B7FA00F1300905F8EB
:10435800019B029B049AEB1A9A4200F3DC80029BB1
:10436800012AACBF9B18013398460023039351469A
:104378000122204600F0B4FC3146824600F001FDDF
:10438800002800F38D8003D119F0010F40F08880D8
:10439800454615F8013C302B05F1FF32AFD11546E3
:1043A800F7E7039B0493002D05DD39462A4620468E
:1043B80000F096FC0746B8F1000F4CD0796820460B
:1043C80000F0D5FA3A6902320546920007F10C016D
:1043D8000C3000F0C1FA01222946204600F080FC8A
:1043E800009BDDF80880039703F001030746059357
:1043F80031465046FFF760FA0399054600F1300947
:10440800504600F0BEFC3A4600903146204600F087
:10441800D2FCC368024603BB01460690504600F032
:10442800B0FC069A034611462046069300F0D3FADC
:10443800069BA3B9079A92B9059A82B9B9F1390FBF
:1044480029D0009B002B01DD05F1310908F1010598
:1044580088F8009053E73846C2E70123E3E7009A5B
:10446800002A04DB25D1079A1ABB059A0ABB002B40
:10447800ECDD51460122204600F032FC31468246EE
:1044880000F07FFC002803DCE0D119F0010FDDD03B
:10449800B9F1390FD8D1392388F8003008F101086B
:1044A800454615F8013C392B05F1FF323BD0013365
:1044B80040E0002B08F1010505DDB9F1390FEAD01C
:1044C80009F10109C4E7029B049A05F8019CEB1A5B
:1044D8009342A8463FF44BAF514600230A22204698
:1044E80000F090FA039B0399BB4282464FF0000309
:1044F8004FF00A02204604D100F084FA03900746E0
:1045080076E700F07FFA002303900A223946204616
:1045180000F078FAF3E7514600230A22204600F01B
:1045280071FA82460DE7029B934205D1029A0BF17C
:10453800010B31231370E2E61546B2E7094BFFF78A
:10454800AEBA219B002B7FF488AA074BFFF7A7BAC6
:10455800049B002B3FF7F4AE079B022B7FF7F0AECE
:10456800B8E600BFC0520008C25200088A892DE987
:10457800F041054610070C465AD44B68002B05DC61
:104588000B6C002B02DC0020BDE8F081E66A002EEF
:10459800F9D0002312F480522F682B6033D0606D5D
:1045A800A3895A0705D56368C01A636B0BB1236CDE
:1045B800C01A00230246E66A216A2846B047431C0F
:1045C800A38906D129681D294BD82B4ACA40D6078A
:1045D80047D500226260D9042269226004D5421CB2
:1045E80001D12B6803B96065616B2F600029CAD0BF
:1045F80004F14403994202D0284600F097FC0020B9
:104608006063BDE8F081216A01232846B047411C58
:10461800C6D12B68002BC3D01D2B01D0162B01D17E
:104628002F60B0E7A38943F04003A381BDE8F08180
:104638000F69002FA7D093070E6808BF4B690F605A
:1046480018BF0023A6EB07088B60B8F1000F9ADDAE
:1046580043463A46216AA66A2846B047002807DC3E
:10466800A38943F04003A3814FF0FF30BDE8F081F8
:104678000744A8EB0008E8E70100402038B50B69BB
:1046880005460C46DBB118B183690BB900F060F838
:104698000C4B9C4209D16C68B4F90C307BB12146B3
:1046A8002846BDE83840FFF761BF074B9C4201D15F
:1046B800AC68F1E7054B9C4208BFEC68ECE70020CA
:1046C80038BD00BFF052000810530008D05200084F
:1046D800014900F0A9B800BF85460008002310B5BD
:1046E800044603604360836081814366C28103613D
:1046F80043618361194608225C30FEF765FC054B6F
:104708006362054BA362054BE362054B2462236396
:1047180010BD00BFAD500008CF5000080751000879
:104728002B51000870B54A1E682555430E4605F101
:10473800740100F049FC044640B1002180E84200C1
:104748000C30A06005F16802FEF73EFC204670BD03
:10475800836910B5044633BB8364C3640365124B95
:10476800124A1B688262984204BF0123836100F0E9
:104778001FF86060204600F01BF8A060204600F09B
:1047880017F80022E06004216068FFF7A7FF012204
:104798000921A068FFF7A2FF02221221E068FFF7B3
:1047A8009DFF0123A36110BDAC520008D946000843
:1047B800F8B51C4B1E68B369074613B93046FFF7B6
:1047C800C7FF4836B4687368013B03D5336833B113
:1047D8003668F7E7B4F90C506DB16834F4E7042192
:1047E8003846FFF79FFF30600028F1D10C233B606B
:1047F80004462046F8BD4FF6FF73E3810123A381E9
:1048080065662560A560656025616561A56108220A
:10481800294604F15C00FEF7D7FB6563A563A56430
:10482800E564E6E7AC5200082DE9F843804689467E
:1048380000F14804002614B93046BDE8F883A5689D
:104848006768013F01D52468F5E7AB89012B07D9D3
:10485800B5F90E30013303D029464046C847064310
:104868006835EEE7044B1B68186A044B002808BF3C
:104878001846F030704700BF100000207400002078
:1048880070B50E46B1F90E10002990B014461D46B9
:1048980007DA00232B60B3891A0610D44FF480631B
:1048A8000EE001AA00F064FC0028F2DB029A02F490
:1048B8007042A2F500535A425A412A60EEE740235B
:1048C8000020236010B070BD8B8973B59D07064624
:1048D8000C4607D504F14703236023610123636174
:1048E80002B070BD01AB6A46FFF7CAFF00990546E2
:1048F800304600F069FB48B9B4F90C309A05EFD49A
:1049080023F0030343F00203A381E3E70D4BB362F3
:10491800A389206043F08003A381009B6361019B0E
:1049280020615BB1B4F90E10304600F033FC28B1B9
:10493800A38923F0030343F00103A381A3891D4343
:10494800A581CDE7D9460008024B0146186800F05A
:104958003BBB00BF1000002010B5431E0A44914223
:1049680000D110BD11F8014B03F8014FF7E770B5FE
:10497800456A04460E463DB91020FFF7E5FF606220
:10498800456085600560C560656AEB6883B1636AE8
:10499800DB6853F82600B8B9012101FA06F56A1D4B
:1049A8009200204600F0B4FA60B1466085600EE0DF
:1049B80021220421204600F0ABFA636AE860DB6834
:1049C800002BE4D1002070BD026843F826200023A4
:1049D8000361C36070BD70B5446A06460D463CB9B4
:1049E8001020FFF7B1FF7062446084600460C46007
:1049F8003DB1736A6A68DB6853F82210296043F88E
:104A0800225070BD2DE9F0410D691F4606460C463F
:104A180001F1140E0023DEF8000081B202FB0171DF
:104A28000F0C000C02FB007089B2013301EB00414E
:104A38009D424FEA10474EF8041BECDCD7B1A3683F
:104A48009D4212DB616830460131FFF790FF226911
:104A5800023204F10C01804692000C30FFF77CFF13
:104A680021463046FFF7B7FF444604EB850301357E
:104A78005F6125612046BDE8F081020C12040346FF
:104A8800B2B90304102013F07F4F04BF1B02083093
:104A980013F0704F04BF1B01043013F0404F04BFE4
:104AA8009B000230002B06DB5B0003D5013070470A
:104AB8000020E8E720207047036813F0070201464A
:104AC8000BD0DA0723D4980749BF5B089B0801205D
:104AD8000B605CBF0B600220704798B2A8B91B0C32
:104AE800102013F0FF0F04BF1B0A08301A0704BF79
:104AF8001B0904309A0704BF9B080230DA0702D466
:104B08005B0806D001300B6070471046E9E70020CB
:104B180070472020704710B50C460121FFF727FF8A
:104B280001224461026110BD2DE9F74F14460A695C
:104B380023699A42B8BF0B468946BCBFA1461C46AA
:104B4800D9F81070D4F810A0D9F80830D9F80410A2
:104B580007EB0A069E42C8BF0131FFF708FF00F1C4
:104B6800140505EB86082B460022434516D304F1AD
:104B7800140209F1140102EB8A0301EB8707019380
:104B8800019C944213460CD8002E03DD58F8043DCE
:104B9800002B54D0066103B0BDE8F08F43F8042B16
:104BA800E3E7B3F800A00432BAF1000F20D0AE4614
:104BB80089464FF0000C59F8044BBEF800B0A3B278
:104BC8000AFB03B34FEA144BDEF8004063444FEA94
:104BD800144C0AFB0BC404EB13449BB243EA044392
:104BE8004F454FEA144C4EF8043BE4D8CEF800C0C9
:104BF80032F8029CB9F1000F1FD02B68AE468C46E4
:104C08004FF0000ABCF80040BEF802B009FB04B43B
:104C1800A2449BB243EA0A434EF8043B5CF8043BC7
:104C2800BEF800401B0C09FB034303EB1A4367451E
:104C38004FEA134AE6D8CEF800300435A0E7013E23
:104C4800A2E700002DE9F843154612F003020646D4
:104C58000F4607D0013A214C002354F82220FFF7D1
:104C6800D1FE0746AD1035D0746A3CB91020FFF765
:104C78006BFE7062446084600460C460D6F824806F
:104C8800D8F808404CB940F271213046FFF743FF8D
:104C98000023C8F80800044603604FF00008EB073B
:104CA8000AD5394622463046FFF73EFF3946814647
:104CB8003046FFF790FE4F466D100BD0206838B98C
:104CC800224621463046FFF72FFF2060C0F80080BB
:104CD8000446E4E73846BDE8F88300BF20540008DE
:104CE8002DE9F0470C464FEA621A236949680AEB36
:104CF8000309A3680746164609F10105AB4231DBF3
:104D08003846FFF734FE0022804600F114031146AE
:104D180052452ADB20692AEAEA7A04F1140116F0DE
:104D28001F0203EB8A0301EB800E22D0C2F1200C94
:104D380000200E689640304343F8040B51F8040BEA
:104D48008E4520FA0CF0F4D8186008B109F1020574
:104D5800013D3846C8F810502146FFF73CFE404652
:104D6800BDE8F08701315B00C8E743F82210013243
:104D7800CEE7043B51F8042B43F8042F8E45F9D8AD
:104D8800E6E703690A699B1A30B50CD19200143022
:104D980014318418114454F8045D51F8042D9542D7
:104DA80003D005D30123184630BDA042F3D3FAE758
:104DB8004FF0FF33F7E72DE9F0470D460746114658
:104DC80028461446FFF7DDFF061E08D1314638464F
:104DD800FFF7CDFD012303614661BDE8F087A4BF5D
:104DE80023462C4638466168A6BF1D460026012684
:104DF800FFF7BDFD2B69C660266905F1140904F1AA
:104E0800140202EB860709EB830800F114054FF042
:104E1800000C52F804AB59F8044B1CFA8AF1A3B2FF
:104E2800C91A230CC3EB1A4303EB214389B24FEA97
:104E3800234CC84541EA0343964645F8043BE8D865
:104E4800BE4505D355F8043D8BB10661BDE8F08732
:104E58005EF8041B1CFA81F31A1402EB11429BB290
:104E680043EA02434FEA224C45F8043BE8E7013E97
:104E7800E8E72DE9F7430E46012159EC108B15465A
:104E8800FFF775FDC9F30A540746C9F3130334BB8A
:104E98000193B8F1000F27D002A840F8088DFFF75A
:104EA8000BFE0099F0B1019AC0F1200302FA03F356
:104EB8000B43C2407B610192019BBB61002B14BF75
:104EC800022101213961C4B1A4F23344044434609D
:104ED800C0F135002860384603B0BDE8F08343F4DC
:104EE8008013D5E77961E7E701A8FFF7E5FD019BA6
:104EF8007B61012139612030E5E707EB8103A0F2EE
:104F0800324030601869FFF7B8FDC0EB4110E1E7A7
:104F180038B502FB01F4214600F056F8054618B1F1
:104F280022460021FEF750F8284638BD38B5054618
:104F3800002945D051F8043C0C1F002BB8BFE418D9
:104F480000F05CF91F4A1368104633B963601460B7
:104F58002846BDE8384000F052B9A3420CD9216870
:104F68006218934204BF1A685B68636004BF5218F2
:104F780022600460ECE713465A680AB1A242FAD9E3
:104F880019685818A0420BD1206801445818824269
:104F98001960DDD1106852685A6001441960D7E77A
:104FA80002D90C232B60D3E7206821188A4204BF5A
:104FB80011685268626004BF091821605C60C7E725
:104FC80038BD00BF1402002070B5CD1C25F00305C4
:104FD80008350C2D38BF0C25002D064601DBA942EB
:104FE80003D90C233360002070BD00F007F9234A71
:104FF8001468214691B9224C23681BB9304600F049
:1050080041F820602946304600F03CF8431C26D180
:105018000C233360304600F0F2F8E4E70B685B1BC2
:105028001AD40B2B0FD90B60CD50CC18304600F09A
:10503800E6F804F10B00231D20F00700C31A1BD06B
:105048005A42E25070BD8C420DBF63684B68636082
:10505800136018BF0C46E9E70C464968CAE7C41C48
:1050680024F00304A04205D0211A304600F00AF8C3
:105078000130CDD02560D9E770BD00BF14020020F3
:105088001802002038B5064C002305460846236060
:10509800FDF760FC431C02D1236803B12B6038BDC7
:1050A800D803002010B50C46B1F90E1000F0A8F88E
:1050B8000028ABBF636DA3891B1823F48053ACBFD2
:1050C8006365A38110BD2DE9F0411F468B89DB057F
:1050D80005460C46164605D502230022B1F90E10E6
:1050E80000F068F8A389B4F90E1023F48053A38163
:1050F80032463B462846BDE8F04100F017B810B5E7
:105108000C46B1F90E1000F055F8431CA38915BFE1
:10511800606523F4805343F48053A38118BFA381AF
:1051280010BDB1F90E1000F013B8000038B5074CE7
:10513800054608461146002222601A46FDF780FA05
:10514800431C02D1236803B12B6038BDD80300206B
:1051580038B5064C0023054608462360FDF714FCC5
:10516800431C02D1236803B12B6038BDD80300204B
:1051780038B5074C00230546084611462360FDF75D
:1051880006FC431C02D1236803B12B6038BD00BF65
:10519800D803002038B5064C00230546084623608E
:1051A800FDF7FAFB431C02D1236803B12B6038BD1D
:1051B800D803002038B5074C05460846114600229A
:1051C80022601A46FDF7EAFB431C02D1236803B1AB
:1051D8002B6038BDD803002082B001B901A942B1C3
:1051E8004BB113780B601278101C18BF012002B065
:1051F80070471046FBE76FF00100F8E7704770470B
:1052080038B5074C054608461146002222601A4662
:10521800FDF792FB431C02D1236803B12B6038BD14
:10522800D803002049B1FF2A85BF8A2303600A708A
:105238004FF0FF3098BF01207047084670470000C4
:10524800F8B500BFF8BC08BC9E467047F8B500BF6B
:08525800F8BC08BC9E4670473B
:1052600002030405060708090A0B0C0D0E0F1010A7
:105270000102030405060708090A0B0C0D0E0F10A6
:105280000004080268656C6C6F20776F726C642094
:1052900000000000000000000001020304060708EF
:1052A00009000000000102030400000014000020B7
:1052B000494E4600696E66004E414E006E616E00BA
:1052C0003000496E66696E697479004E614E000067
:1052D00000000000000000000000000000000000CE
:1052E00000000000000000000000000000000000BE
:1052F00000000000000000000000000000000000AE
:10530000000000000000000000000000000000009D
:10531000000000000000000000000000000000008D
:10532000000000000000000000000000000000007D
:105330000080E03779C34143176E05B5B5B8934691
:10534000F5F93FE9034F384D321D30F94877825A5D
:105350003CBF737FDD4F1575000000000000F03F7B
:105360000000000000002440000000000000594040
:105370000000000000408F40000000000088C34093
:1053800000000000006AF8400000000080842E4108
:1053900000000000D01263410000000084D7974154
:1053A0000000000065CDCD41000000205FA002425A
:1053B000000000E876483742000000A2941A6D42CF
:1053C000000040E59C30A2420000901EC4BCD642C2
:1053D00000003426F56B0C430080E03779C341436D
:1053E00000A0D8855734764300C84E676DC1AB43E3
:1053F000003D9160E458E143408CB5781DAF154401
:1054000050EFE2D6E41A4B4492D54D06CFF08044DB
:10541000F64AE1C7022DB544B49DD9794378EA44F0
:1054200005000000190000007D0000004300504FFF
:10543000534958002E00002020202020202020202A
:105440002828282828202020202020202020202034
:105450002020202020202088101010101010101064
:1054600010101010101010040404040404040404A8
:105470000410101010101010414141414141010130
:10548000010101010101010101010101010101010C
:10549000010110101010101042424242424202021A
:1054A00002020202020202020202020202020202DC
:1054B0000202101010102000000000000000000088
:1054C00000000000000000000000000000000000DC
:1054D00000000000000000000000000000000000CC
:1054E00000000000000000000000000000000000BC
:1054F00000000000000000000000000000000000AC
:10550000000000000000000000000000000000009B
:10551000000000000000000000000000000000008B
:10552000000000000000000000000000000000007B
:08553000000000000000000073
:04553800AD010008B9
:04553C0089010008D9
:1055400001000000100000000100000000127A00BD
:105550001400002000000000F05200081053000862
:10556000D052000800000000000000000000000011
:10557000000000000000000000000000000000002B
:10558000000000000000000000000000000000001B
:10559000000000000000000000000000000000000B
:1055A00000000000000000000000000000000000FB
:1055B00000000000430000000000000000000000A8
:1055C00000000000000000000000000000000000DB
:1055D0000000000043000000000000000000000088
:1055E00000000000000000000000000000000000BB
:1055F0000000000043000000000000000000000068
:10560000000000000000000000000000000000009A
:105610000000000043000000000000000000000047
:10562000000000000000000000000000000000007A
:105630000000000043000000000000000000000027
:10564000000000000000000000000000000000005A
:105650000000000043000000000000000000000007
:10566000000000000000000000000000000000003A
:1056700000000000430000000000000000000000E7
:10568000000000000000000000000000000000001A
:10569000000000002D520008E15100080000000049
:1056A0003654000834540008905200089052000804
:1056B0009052000890520008905200089052000842
:1056C000905200089052000890520008FFFFFFFF20
:1056D000FFFFFFFFFFFFFFFFFFFF0000010041533F
:1056E00043494900000000000000000000000000E5
:1056F0000000000000000000000000000000415316
:1057000043494900000000000000000000000000C4
:105710000000000000000000000000000000000089
:0400000508002F2997
:00000001FF
